{
  "contractName": "XYZCoin",
  "abi": [
    {
      "constant": true,
      "inputs": [
        {
          "name": "",
          "type": "address"
        }
      ],
      "name": "balances",
      "outputs": [
        {
          "name": "",
          "type": "uint256"
        }
      ],
      "payable": false,
      "stateMutability": "view",
      "type": "function"
    },
    {
      "constant": true,
      "inputs": [
        {
          "name": "",
          "type": "address"
        },
        {
          "name": "",
          "type": "address"
        }
      ],
      "name": "allowed",
      "outputs": [
        {
          "name": "",
          "type": "uint256"
        }
      ],
      "payable": false,
      "stateMutability": "view",
      "type": "function"
    },
    {
      "constant": true,
      "inputs": [],
      "name": "atry",
      "outputs": [
        {
          "name": "",
          "type": "uint256"
        }
      ],
      "payable": false,
      "stateMutability": "view",
      "type": "function"
    },
    {
      "inputs": [],
      "payable": false,
      "stateMutability": "nonpayable",
      "type": "constructor"
    },
    {
      "anonymous": false,
      "inputs": [
        {
          "indexed": true,
          "name": "_from",
          "type": "address"
        },
        {
          "indexed": true,
          "name": "_to",
          "type": "address"
        },
        {
          "indexed": false,
          "name": "_value",
          "type": "uint256"
        }
      ],
      "name": "Transfer",
      "type": "event"
    },
    {
      "anonymous": false,
      "inputs": [
        {
          "indexed": true,
          "name": "_owner",
          "type": "address"
        },
        {
          "indexed": true,
          "name": "_spender",
          "type": "address"
        },
        {
          "indexed": false,
          "name": "_value",
          "type": "uint256"
        }
      ],
      "name": "Approval",
      "type": "event"
    },
    {
      "constant": true,
      "inputs": [],
      "name": "name",
      "outputs": [
        {
          "name": "",
          "type": "string"
        }
      ],
      "payable": false,
      "stateMutability": "view",
      "type": "function"
    },
    {
      "constant": true,
      "inputs": [],
      "name": "symbol",
      "outputs": [
        {
          "name": "",
          "type": "string"
        }
      ],
      "payable": false,
      "stateMutability": "view",
      "type": "function"
    },
    {
      "constant": true,
      "inputs": [],
      "name": "decimals",
      "outputs": [
        {
          "name": "",
          "type": "uint256"
        }
      ],
      "payable": false,
      "stateMutability": "view",
      "type": "function"
    },
    {
      "constant": true,
      "inputs": [],
      "name": "totalSupply",
      "outputs": [
        {
          "name": "",
          "type": "uint256"
        }
      ],
      "payable": false,
      "stateMutability": "view",
      "type": "function"
    },
    {
      "constant": false,
      "inputs": [
        {
          "name": "_owner",
          "type": "address"
        }
      ],
      "name": "balanceOf",
      "outputs": [
        {
          "name": "balance",
          "type": "uint256"
        }
      ],
      "payable": false,
      "stateMutability": "nonpayable",
      "type": "function"
    },
    {
      "constant": false,
      "inputs": [
        {
          "name": "_to",
          "type": "address"
        },
        {
          "name": "_value",
          "type": "uint256"
        }
      ],
      "name": "transfer",
      "outputs": [
        {
          "name": "success",
          "type": "bool"
        }
      ],
      "payable": false,
      "stateMutability": "nonpayable",
      "type": "function"
    },
    {
      "constant": false,
      "inputs": [
        {
          "name": "_from",
          "type": "address"
        },
        {
          "name": "_to",
          "type": "address"
        },
        {
          "name": "_value",
          "type": "uint256"
        }
      ],
      "name": "transferFrom",
      "outputs": [
        {
          "name": "success",
          "type": "bool"
        }
      ],
      "payable": false,
      "stateMutability": "nonpayable",
      "type": "function"
    },
    {
      "constant": false,
      "inputs": [
        {
          "name": "_spender",
          "type": "address"
        },
        {
          "name": "_value",
          "type": "uint256"
        }
      ],
      "name": "approve",
      "outputs": [
        {
          "name": "success",
          "type": "bool"
        }
      ],
      "payable": false,
      "stateMutability": "nonpayable",
      "type": "function"
    },
    {
      "constant": true,
      "inputs": [
        {
          "name": "_owner",
          "type": "address"
        },
        {
          "name": "_spender",
          "type": "address"
        }
      ],
      "name": "allowance",
      "outputs": [
        {
          "name": "remaining",
          "type": "uint256"
        }
      ],
      "payable": false,
      "stateMutability": "view",
      "type": "function"
    },
    {
      "constant": false,
      "inputs": [
        {
          "name": "n",
          "type": "uint256"
        }
      ],
      "name": "change",
      "outputs": [
        {
          "name": "",
          "type": "uint256"
        }
      ],
      "payable": false,
      "stateMutability": "nonpayable",
      "type": "function"
    }
  ],
  "bytecode": "0x60c0604052600760808190527f6d79546f6b656e0000000000000000000000000000000000000000000000000060a090815261003e91600091906100ba565b506040805180820190915260038082527f57424800000000000000000000000000000000000000000000000000000000006020909201918252610083916001916100ba565b5060006002556103e860035560146004553480156100a057600080fd5b503360009081526005602052604090206103e89055610155565b828054600181600116156101000203166002900490600052602060002090601f016020900481019282601f106100fb57805160ff1916838001178555610128565b82800160010185558215610128579182015b8281111561012857825182559160200191906001019061010d565b50610134929150610138565b5090565b61015291905b80821115610134576000815560010161013e565b90565b61071f806101646000396000f3fe6080604052600436106100be577c0100000000000000000000000000000000000000000000000000000000600035046306fdde0381146100c3578063095ea7b31461014d57806318160ddd1461019a57806323b872dd146101c157806327e235e314610204578063313ce567146102375780635c6581651461024c57806370a082311461028757806375322e47146102ba57806395d89b41146102e4578063a9059cbb146102f9578063db90c6c114610332578063dd62ed3e14610347575b600080fd5b3480156100cf57600080fd5b506100d8610382565b6040805160208082528351818301528351919283929083019185019080838360005b838110156101125781810151838201526020016100fa565b50505050905090810190601f16801561013f5780820380516001836020036101000a031916815260200191505b509250505060405180910390f35b34801561015957600080fd5b506101866004803603604081101561017057600080fd5b50600160a060020a038135169060200135610418565b604080519115158252519081900360200190f35b3480156101a657600080fd5b506101af61049b565b60408051918252519081900360200190f35b3480156101cd57600080fd5b50610186600480360360608110156101e457600080fd5b50600160a060020a038135811691602081013590911690604001356104a1565b34801561021057600080fd5b506101af6004803603602081101561022757600080fd5b5035600160a060020a0316610580565b34801561024357600080fd5b506101af610592565b34801561025857600080fd5b506101af6004803603604081101561026f57600080fd5b50600160a060020a0381358116916020013516610598565b34801561029357600080fd5b506101af600480360360208110156102aa57600080fd5b5035600160a060020a03166105b5565b3480156102c657600080fd5b506101af600480360360208110156102dd57600080fd5b50356105d0565b3480156102f057600080fd5b506100d86105d8565b34801561030557600080fd5b506101866004803603604081101561031c57600080fd5b50600160a060020a038135169060200135610638565b34801561033e57600080fd5b506101af6106c2565b34801561035357600080fd5b506101af6004803603604081101561036a57600080fd5b50600160a060020a03813581169160200135166106c8565b60008054604080516020601f600260001961010060018816150201909516949094049384018190048102820181019092528281526060939092909183018282801561040e5780601f106103e35761010080835404028352916020019161040e565b820191906000526020600020905b8154815290600101906020018083116103f157829003601f168201915b5050505050905090565b3360009081526005602052604081205482111561043457600080fd5b336000818152600660209081526040808320600160a060020a03881680855290835292819020869055805186815290519293927f8c5be1e5ebec7d5bd14f71427d1e84f3dd0314c0f7b2291e5b200ac8c7c3b925929181900390910190a350600192915050565b60035490565b600160a060020a03831660009081526006602090815260408083203384529091528120548211156104d157600080fd5b600160a060020a0384166000908152600560205260409020548211156104f657600080fd5b600160a060020a0380851660008181526006602090815260408083203384528252808320805488900390559387168083526005825284832080548801905583835291849020805487900390558351868152935191937fddf252ad1be2c89b69c2b068fc378daa952ba7f163c4a11628f55a4df523b3ef929081900390910190a35060019392505050565b60056020526000908152604090205481565b60025490565b600660209081526000928352604080842090915290825290205481565b600160a060020a031660009081526005602052604090205490565b600481905590565b60018054604080516020601f6002600019610100878916150201909516949094049384018190048102820181019092528281526060939092909183018282801561040e5780601f106103e35761010080835404028352916020019161040e565b3360009081526005602052604081205482111561065457600080fd5b33600081815260056020908152604080832080548790039055600160a060020a03871680845292819020805487019055805186815290519293927fddf252ad1be2c89b69c2b068fc378daa952ba7f163c4a11628f55a4df523b3ef929181900390910190a350600192915050565b60045481565b600160a060020a0391821660009081526006602090815260408083209390941682529190915220549056fea165627a7a72305820a7b70c303323bf57852645eb56745635d633d29f51d9f0ee5c75c63454af1e450029",
  "source": "pragma solidity ^0.5.1;\r\n\r\nimport \"./ERC20.sol\";\r\n\r\ncontract XYZCoin is ERC20{\r\n    string private _name = \"myToken\";\r\n    string private _symbol = \"WBH\";\r\n    uint private _decimals = 0;\r\n    uint private _totalSupply = 1000;\r\n    uint public atry = 20;\r\n\r\n    //to get user's balance according to his address\r\n    mapping (address => uint256) public balances;\r\n\r\n    //to get the amount of money one user allows another user to get\r\n    mapping (address => mapping (address => uint256)) public allowed;\r\n\r\n    constructor() public{\r\n        balances[msg.sender]=1000;\r\n    }\r\n\r\n    function name() public view returns (string memory){\r\n        return _name;\r\n    }\r\n    function symbol() public view returns (string memory){\r\n        return _symbol;\r\n    }\r\n    function decimals() public view returns (uint256){\r\n        return _decimals;\r\n    }\r\n    function totalSupply() public view returns (uint256){\r\n        return _totalSupply;\r\n    }\r\n\r\n    function balanceOf(address _owner) public returns (uint256 balance){\r\n        balance = balances[_owner];\r\n        return balances[_owner];\r\n    }\r\n    function transfer(address _to, uint256 _value) public returns (bool success){\r\n        require(balances[msg.sender]>=_value);\r\n        \r\n        balances[msg.sender]=balances[msg.sender]-_value;\r\n        balances[_to]=balances[_to]+_value;\r\n        \r\n        emit Transfer(msg.sender,_to,_value);\r\n        return true;\r\n    }\r\n    function transferFrom(address _from, address _to, uint256 _value) public returns (bool success){\r\n        require(allowed[_from][msg.sender]>=_value);\r\n        require(balances[_from]>=_value);\r\n        \r\n        allowed[_from][msg.sender]=allowed[_from][msg.sender]-_value;\r\n        balances[_to]+=_value;\r\n        balances[_from]-=_value;\r\n        \r\n        emit Transfer(_from,_to,_value);\r\n        return true;\r\n    }\r\n    function approve(address _spender, uint256 _value) public returns (bool success){\r\n        require(balances[msg.sender]>=_value);\r\n        allowed[msg.sender][_spender]=_value;\r\n        emit Approval(msg.sender,_spender,_value);\r\n        return true;\r\n    }\r\n    function allowance(address _owner, address _spender) public view returns (uint256 remaining){\r\n        return allowed[_owner][_spender];\r\n    }\r\n\r\n    \r\n    function change(uint n) public returns(uint){\r\n        atry=n;\r\n        return atry;\r\n    }\r\n\r\n}",
  "sourcePath": "E:\\ethereum\\WEEK3\\assignment3\\myToken\\contracts\\XYZCoin.sol",
  "compiler": {
    "name": "solc",
    "version": "0.5.1+commit.c8a2cb62.Emscripten.clang"
  },
  "schemaVersion": "3.4.3",
  "updatedAt": "2021-08-30T08:45:23.080Z",
  "networkType": "ethereum",
  "devdoc": {
    "methods": {}
  },
  "userdoc": {
    "methods": {}
  }
}